{
  "contractName": "CryptoMon",
  "abi": [
    {
      "constant": true,
      "inputs": [
        {
          "name": "interfaceID",
          "type": "bytes4"
        }
      ],
      "name": "supportsInterface",
      "outputs": [
        {
          "name": "",
          "type": "bool"
        }
      ],
      "payable": false,
      "stateMutability": "view",
      "type": "function"
    },
    {
      "constant": true,
      "inputs": [
        {
          "name": "_tokenId",
          "type": "uint256"
        }
      ],
      "name": "getApproved",
      "outputs": [
        {
          "name": "",
          "type": "address"
        }
      ],
      "payable": false,
      "stateMutability": "view",
      "type": "function"
    },
    {
      "constant": false,
      "inputs": [
        {
          "name": "_approved",
          "type": "address"
        },
        {
          "name": "_tokenId",
          "type": "uint256"
        }
      ],
      "name": "approve",
      "outputs": [],
      "payable": true,
      "stateMutability": "payable",
      "type": "function"
    },
    {
      "constant": false,
      "inputs": [
        {
          "name": "_min",
          "type": "uint256"
        },
        {
          "name": "_max",
          "type": "uint256"
        }
      ],
      "name": "randInt",
      "outputs": [
        {
          "name": "",
          "type": "uint256"
        }
      ],
      "payable": false,
      "stateMutability": "nonpayable",
      "type": "function"
    },
    {
      "constant": true,
      "inputs": [
        {
          "name": "",
          "type": "address"
        }
      ],
      "name": "money",
      "outputs": [
        {
          "name": "",
          "type": "uint256"
        }
      ],
      "payable": false,
      "stateMutability": "view",
      "type": "function"
    },
    {
      "constant": false,
      "inputs": [
        {
          "name": "_newOwner",
          "type": "address"
        }
      ],
      "name": "nominateNewOwner",
      "outputs": [],
      "payable": false,
      "stateMutability": "nonpayable",
      "type": "function"
    },
    {
      "constant": true,
      "inputs": [],
      "name": "totalSupply",
      "outputs": [
        {
          "name": "",
          "type": "uint256"
        }
      ],
      "payable": false,
      "stateMutability": "view",
      "type": "function"
    },
    {
      "constant": false,
      "inputs": [
        {
          "name": "_from",
          "type": "address"
        },
        {
          "name": "_to",
          "type": "address"
        },
        {
          "name": "_tokenId",
          "type": "uint256"
        }
      ],
      "name": "transferFrom",
      "outputs": [],
      "payable": true,
      "stateMutability": "payable",
      "type": "function"
    },
    {
      "constant": false,
      "inputs": [
        {
          "name": "_from",
          "type": "address"
        },
        {
          "name": "_to",
          "type": "address"
        },
        {
          "name": "_tokenId",
          "type": "uint256"
        }
      ],
      "name": "safeTransferFrom",
      "outputs": [],
      "payable": true,
      "stateMutability": "payable",
      "type": "function"
    },
    {
      "constant": true,
      "inputs": [
        {
          "name": "_tokenId",
          "type": "uint256"
        }
      ],
      "name": "ownerOf",
      "outputs": [
        {
          "name": "",
          "type": "address"
        }
      ],
      "payable": false,
      "stateMutability": "view",
      "type": "function"
    },
    {
      "constant": true,
      "inputs": [
        {
          "name": "_owner",
          "type": "address"
        }
      ],
      "name": "balanceOf",
      "outputs": [
        {
          "name": "",
          "type": "uint256"
        }
      ],
      "payable": false,
      "stateMutability": "view",
      "type": "function"
    },
    {
      "constant": false,
      "inputs": [],
      "name": "acceptOwnership",
      "outputs": [],
      "payable": false,
      "stateMutability": "nonpayable",
      "type": "function"
    },
    {
      "constant": true,
      "inputs": [
        {
          "name": "",
          "type": "uint32"
        }
      ],
      "name": "inSale",
      "outputs": [
        {
          "name": "",
          "type": "uint256"
        }
      ],
      "payable": false,
      "stateMutability": "view",
      "type": "function"
    },
    {
      "constant": true,
      "inputs": [
        {
          "name": "",
          "type": "uint256"
        }
      ],
      "name": "params",
      "outputs": [
        {
          "name": "",
          "type": "uint64"
        }
      ],
      "payable": false,
      "stateMutability": "view",
      "type": "function"
    },
    {
      "constant": false,
      "inputs": [
        {
          "name": "_operator",
          "type": "address"
        },
        {
          "name": "_approved",
          "type": "bool"
        }
      ],
      "name": "setApprovalForAll",
      "outputs": [],
      "payable": false,
      "stateMutability": "nonpayable",
      "type": "function"
    },
    {
      "constant": false,
      "inputs": [
        {
          "name": "_from",
          "type": "address"
        },
        {
          "name": "_to",
          "type": "address"
        },
        {
          "name": "_tokenId",
          "type": "uint256"
        },
        {
          "name": "_data",
          "type": "bytes"
        }
      ],
      "name": "safeTransferFrom",
      "outputs": [],
      "payable": true,
      "stateMutability": "payable",
      "type": "function"
    },
    {
      "constant": true,
      "inputs": [
        {
          "name": "",
          "type": "uint256"
        }
      ],
      "name": "monsters",
      "outputs": [
        {
          "name": "atk",
          "type": "uint8"
        },
        {
          "name": "def",
          "type": "uint8"
        },
        {
          "name": "spd",
          "type": "uint8"
        },
        {
          "name": "lvl",
          "type": "uint8"
        },
        {
          "name": "rarity",
          "type": "uint8"
        },
        {
          "name": "exp",
          "type": "uint256"
        },
        {
          "name": "busy",
          "type": "bool"
        }
      ],
      "payable": false,
      "stateMutability": "view",
      "type": "function"
    },
    {
      "constant": false,
      "inputs": [
        {
          "name": "_parameter",
          "type": "uint8"
        },
        {
          "name": "_newValue",
          "type": "uint16"
        }
      ],
      "name": "changeParameter",
      "outputs": [],
      "payable": false,
      "stateMutability": "nonpayable",
      "type": "function"
    },
    {
      "constant": true,
      "inputs": [
        {
          "name": "_owner",
          "type": "address"
        },
        {
          "name": "_operator",
          "type": "address"
        }
      ],
      "name": "isApprovedForAll",
      "outputs": [
        {
          "name": "",
          "type": "bool"
        }
      ],
      "payable": false,
      "stateMutability": "view",
      "type": "function"
    },
    {
      "constant": true,
      "inputs": [],
      "name": "ERC721_RECEIVED",
      "outputs": [
        {
          "name": "",
          "type": "bytes4"
        }
      ],
      "payable": false,
      "stateMutability": "view",
      "type": "function"
    },
    {
      "constant": false,
      "inputs": [
        {
          "name": "_from",
          "type": "address"
        },
        {
          "name": "_tokenId",
          "type": "uint256"
        },
        {
          "name": "_data",
          "type": "bytes"
        }
      ],
      "name": "onERC721Received",
      "outputs": [
        {
          "name": "",
          "type": "bytes4"
        }
      ],
      "payable": false,
      "stateMutability": "nonpayable",
      "type": "function"
    },
    {
      "inputs": [],
      "payable": false,
      "stateMutability": "nonpayable",
      "type": "constructor"
    },
    {
      "anonymous": false,
      "inputs": [
        {
          "indexed": true,
          "name": "_player",
          "type": "address"
        },
        {
          "indexed": false,
          "name": "_ids",
          "type": "uint32[6]"
        }
      ],
      "name": "Unboxed",
      "type": "event"
    },
    {
      "anonymous": false,
      "inputs": [
        {
          "indexed": true,
          "name": "_player",
          "type": "address"
        },
        {
          "indexed": false,
          "name": "_id",
          "type": "uint32"
        },
        {
          "indexed": true,
          "name": "_price",
          "type": "uint256"
        }
      ],
      "name": "ForSale",
      "type": "event"
    },
    {
      "anonymous": false,
      "inputs": [
        {
          "indexed": true,
          "name": "_attacker",
          "type": "address"
        },
        {
          "indexed": true,
          "name": "_defender",
          "type": "address"
        },
        {
          "indexed": false,
          "name": "_team1",
          "type": "uint32[20]"
        },
        {
          "indexed": false,
          "name": "_team2",
          "type": "uint32[20]"
        },
        {
          "indexed": false,
          "name": "_bonusWinner",
          "type": "uint8"
        },
        {
          "indexed": true,
          "name": "_winnerId",
          "type": "uint256"
        },
        {
          "indexed": false,
          "name": "_moneyWon",
          "type": "uint256"
        }
      ],
      "name": "Results",
      "type": "event"
    },
    {
      "anonymous": false,
      "inputs": [
        {
          "indexed": true,
          "name": "_parameter",
          "type": "uint8"
        },
        {
          "indexed": false,
          "name": "_oldValue",
          "type": "uint256"
        },
        {
          "indexed": false,
          "name": "_newValue",
          "type": "uint256"
        }
      ],
      "name": "Changed",
      "type": "event"
    },
    {
      "anonymous": false,
      "inputs": [
        {
          "indexed": false,
          "name": "_id",
          "type": "uint32"
        },
        {
          "indexed": false,
          "name": "_atkMod",
          "type": "uint8"
        },
        {
          "indexed": false,
          "name": "_defMod",
          "type": "uint8"
        },
        {
          "indexed": false,
          "name": "_spdMod",
          "type": "uint8"
        }
      ],
      "name": "Upgraded",
      "type": "event"
    },
    {
      "anonymous": false,
      "inputs": [
        {
          "indexed": true,
          "name": "_from",
          "type": "address"
        },
        {
          "indexed": true,
          "name": "_to",
          "type": "address"
        },
        {
          "indexed": true,
          "name": "_tokenId",
          "type": "uint256"
        }
      ],
      "name": "Transfer",
      "type": "event"
    },
    {
      "anonymous": false,
      "inputs": [
        {
          "indexed": true,
          "name": "_owner",
          "type": "address"
        },
        {
          "indexed": true,
          "name": "_approved",
          "type": "address"
        },
        {
          "indexed": true,
          "name": "_tokenId",
          "type": "uint256"
        }
      ],
      "name": "Approval",
      "type": "event"
    },
    {
      "anonymous": false,
      "inputs": [
        {
          "indexed": true,
          "name": "_owner",
          "type": "address"
        },
        {
          "indexed": true,
          "name": "_operator",
          "type": "address"
        },
        {
          "indexed": false,
          "name": "_approved",
          "type": "bool"
        }
      ],
      "name": "ApprovalForAll",
      "type": "event"
    },
    {
      "anonymous": false,
      "inputs": [
        {
          "indexed": true,
          "name": "_from",
          "type": "address"
        },
        {
          "indexed": true,
          "name": "_to",
          "type": "address"
        }
      ],
      "name": "OwnershipTransferred",
      "type": "event"
    },
    {
      "constant": false,
      "inputs": [],
      "name": "unbox",
      "outputs": [],
      "payable": true,
      "stateMutability": "payable",
      "type": "function"
    },
    {
      "constant": false,
      "inputs": [
        {
          "name": "_ids",
          "type": "uint32[5]"
        },
        {
          "name": "_minBet",
          "type": "uint256"
        }
      ],
      "name": "fight",
      "outputs": [],
      "payable": true,
      "stateMutability": "payable",
      "type": "function"
    },
    {
      "constant": false,
      "inputs": [],
      "name": "stopWaiting",
      "outputs": [],
      "payable": false,
      "stateMutability": "nonpayable",
      "type": "function"
    },
    {
      "constant": false,
      "inputs": [
        {
          "name": "_id",
          "type": "uint32"
        },
        {
          "name": "_price",
          "type": "uint256"
        }
      ],
      "name": "sellMonster",
      "outputs": [],
      "payable": false,
      "stateMutability": "nonpayable",
      "type": "function"
    },
    {
      "constant": false,
      "inputs": [
        {
          "name": "_id",
          "type": "uint32"
        }
      ],
      "name": "buyMonster",
      "outputs": [],
      "payable": true,
      "stateMutability": "payable",
      "type": "function"
    },
    {
      "constant": false,
      "inputs": [
        {
          "name": "_ids",
          "type": "uint32[]"
        },
        {
          "name": "_atkMod",
          "type": "uint8[]"
        },
        {
          "name": "_defMod",
          "type": "uint8[]"
        },
        {
          "name": "_spdMod",
          "type": "uint8[]"
        }
      ],
      "name": "lvlUp",
      "outputs": [],
      "payable": false,
      "stateMutability": "nonpayable",
      "type": "function"
    }
  ],
  "bytecode": "0x60806040526101a0604051908101604052806608e1bc9bf0400066ffffffffffffff168152602001662c68af0bb1400066ffffffffffffff16815260200166853a0d2313c00066ffffffffffffff168152602001600066ffffffffffffff1681526020016102bc66ffffffffffffff1681526020016107d066ffffffffffffff168152602001600566ffffffffffffff168152602001606466ffffffffffffff168152602001602866ffffffffffffff16815260200161017766ffffffffffffff168152602001600166ffffffffffffff168152602001600566ffffffffffffff168152602001630133efac66ffffffffffffff1681525060d390600d6200010992919062000165565b503480156200011757600080fd5b50336000806101000a81548173ffffffffffffffffffffffffffffffffffffffff021916908373ffffffffffffffffffffffffffffffffffffffff1602179055504260d28190555062000254565b82600d600301600490048101928215620002075791602002820160005b83821115620001cf57835183826101000a81548167ffffffffffffffff021916908366ffffffffffffff160217905550926020019260080160208160070104928301926001030262000182565b8015620002055782816101000a81549067ffffffffffffffff0219169055600801602081600701049283019260010302620001cf565b505b5090506200021691906200021a565b5090565b6200025191905b808211156200024d57600081816101000a81549067ffffffffffffffff02191690555060010162000221565b5090565b90565b615d7180620002646000396000f30060806040526004361061015f576000357c0100000000000000000000000000000000000000000000000000000000900463ffffffff16806301ffc9a714610164578063081812fc146101c8578063095ea7b3146102355780630b15650b1461027557806315e1f7cd146102c05780631627540c1461031757806318160ddd1461035a57806323b872dd1461038557806342842e0e146103e55780636352211e146104455780636ae535e6146104b257806370a08231146104dc57806379ba5097146105335780638762c3691461054a5780638fbf9acc146105875780639d2f053c146105ce578063a22cb46514610623578063a65537e714610672578063a74ba9f814610698578063b88d4fde146106a2578063c0576b7314610748578063d1deddb4146107d5578063e985e9c514610813578063ea3e94121461088e578063ecc98ce4146108a5578063f0b9e5ba1461090e578063fc236d86146109c5575b600080fd5b34801561017057600080fd5b506101ae60048036038101908080357bffffffffffffffffffffffffffffffffffffffffffffffffffffffff19169060200190929190505050610a48565b604051808215151515815260200191505060405180910390f35b3480156101d457600080fd5b506101f360048036038101908080359060200190929190505050610dd6565b604051808273ffffffffffffffffffffffffffffffffffffffff1673ffffffffffffffffffffffffffffffffffffffff16815260200191505060405180910390f35b610273600480360381019080803573ffffffffffffffffffffffffffffffffffffffff16906020019092919080359060200190929190505050610e26565b005b34801561028157600080fd5b506102aa6004803603810190808035906020019092919080359060200190929190505050611075565b6040518082815260200191505060405180910390f35b3480156102cc57600080fd5b50610301600480360381019080803573ffffffffffffffffffffffffffffffffffffffff1690602001909291905050506110c6565b6040518082815260200191505060405180910390f35b34801561032357600080fd5b50610358600480360381019080803573ffffffffffffffffffffffffffffffffffffffff1690602001909291905050506110de565b005b34801561036657600080fd5b5061036f61117d565b6040518082815260200191505060405180910390f35b6103e3600480360381019080803573ffffffffffffffffffffffffffffffffffffffff169060200190929190803573ffffffffffffffffffffffffffffffffffffffff1690602001909291908035906020019092919050505061118a565b005b610443600480360381019080803573ffffffffffffffffffffffffffffffffffffffff169060200190929190803573ffffffffffffffffffffffffffffffffffffffff16906020019092919080359060200190929190505050611504565b005b34801561045157600080fd5b50610470600480360381019080803590602001909291905050506116c3565b604051808273ffffffffffffffffffffffffffffffffffffffff1673ffffffffffffffffffffffffffffffffffffffff16815260200191505060405180910390f35b6104da6004803603810190808060a0019091929192908035906020019092919050505061176e565b005b3480156104e857600080fd5b5061051d600480360381019080803573ffffffffffffffffffffffffffffffffffffffff169060200190929190505050611f86565b6040518082815260200191505060405180910390f35b34801561053f57600080fd5b5061054861200a565b005b34801561055657600080fd5b50610585600480360381019080803563ffffffff16906020019092919080359060200190929190505050612145565b005b34801561059357600080fd5b506105b8600480360381019080803563ffffffff1690602001909291905050506122f1565b6040518082815260200191505060405180910390f35b3480156105da57600080fd5b506105f960048036038101908080359060200190929190505050612309565b604051808267ffffffffffffffff1667ffffffffffffffff16815260200191505060405180910390f35b34801561062f57600080fd5b50610670600480360381019080803573ffffffffffffffffffffffffffffffffffffffff16906020019092919080351515906020019092919050505061233c565b005b610696600480360381019080803563ffffffff16906020019092919050505061243d565b005b6106a06127e1565b005b610746600480360381019080803573ffffffffffffffffffffffffffffffffffffffff169060200190929190803573ffffffffffffffffffffffffffffffffffffffff16906020019092919080359060200190929190803590602001908201803590602001908080601f0160208091040260200160405190810160405280939291908181526020018383808284378201915050505050509192919290505050612e7a565b005b34801561075457600080fd5b50610773600480360381019080803590602001909291905050506131f7565b604051808860ff1660ff1681526020018760ff1660ff1681526020018660ff1660ff1681526020018560ff1660ff1681526020018460ff1660ff1681526020018381526020018215151515815260200197505050505050505060405180910390f35b3480156107e157600080fd5b50610811600480360381019080803560ff169060200190929190803561ffff169060200190929190505050613296565b005b34801561081f57600080fd5b50610874600480360381019080803573ffffffffffffffffffffffffffffffffffffffff169060200190929190803573ffffffffffffffffffffffffffffffffffffffff1690602001909291905050506133e3565b604051808215151515815260200191505060405180910390f35b34801561089a57600080fd5b506108a3613477565b005b3480156108b157600080fd5b506108ba613890565b60405180827bffffffffffffffffffffffffffffffffffffffffffffffffffffffff19167bffffffffffffffffffffffffffffffffffffffffffffffffffffffff1916815260200191505060405180910390f35b34801561091a57600080fd5b50610971600480360381019080803573ffffffffffffffffffffffffffffffffffffffff169060200190929190803590602001909291908035906020019082018035906020019190919293919293905050506138b7565b60405180827bffffffffffffffffffffffffffffffffffffffffffffffffffffffff19167bffffffffffffffffffffffffffffffffffffffffffffffffffffffff1916815260200191505060405180910390f35b3480156109d157600080fd5b50610a466004803603810190808035906020019082018035906020019190919293919293908035906020019082018035906020019190919293919293908035906020019082018035906020019190919293919293908035906020019082018035906020019190919293919293905050506138e7565b005b600080600060405180807f737570706f727473496e7465726661636528627974657334290000000000000081525060190190506040518091039020915060405180807f746f74616c537570706c79282900000000000000000000000000000000000000815250600d019050604051809103902060405180807f736166655472616e7366657246726f6d28616464726573732c6164647265737381526020017f2c75696e743235362c6279746573290000000000000000000000000000000000815250602f019050604051809103902060405180807f736166655472616e7366657246726f6d28616464726573732c6164647265737381526020017f2c75696e743235362900000000000000000000000000000000000000000000008152506029019050604051809103902060405180807f7472616e7366657246726f6d28616464726573732c616464726573732c75696e81526020017f74323536290000000000000000000000000000000000000000000000000000008152506025019050604051809103902060405180807f6973417070726f766564466f72416c6c28616464726573732c6164647265737381526020017f29000000000000000000000000000000000000000000000000000000000000008152506021019050604051809103902060405180807f736574417070726f76616c466f72416c6c28616464726573732c626f6f6c2900815250601f019050604051809103902060405180807f676574417070726f7665642875696e74323536290000000000000000000000008152506014019050604051809103902060405180807f617070726f766528616464726573732c75696e743235362900000000000000008152506018019050604051809103902060405180807f6f776e65724f662875696e7432353629000000000000000000000000000000008152506010019050604051809103902060405180807f62616c616e63654f662861646472657373290000000000000000000000000000815250601201905060405180910390201818181818181818189050817bffffffffffffffffffffffffffffffffffffffffffffffffffffffff1916847bffffffffffffffffffffffffffffffffffffffffffffffffffffffff19161480610dcd5750807bffffffffffffffffffffffffffffffffffffffffffffffffffffffff1916847bffffffffffffffffffffffffffffffffffffffffffffffffffffffff1916145b92505050919050565b600060028054905082101515610deb57600080fd5b60d1600083815260200190815260200160002060009054906101000a900473ffffffffffffffffffffffffffffffffffffffff169050919050565b33818173ffffffffffffffffffffffffffffffffffffffff1660cd600083815260200190815260200160002060009054906101000a900473ffffffffffffffffffffffffffffffffffffffff1673ffffffffffffffffffffffffffffffffffffffff161480610ef357508173ffffffffffffffffffffffffffffffffffffffff1660d1600083815260200190815260200160002060009054906101000a900473ffffffffffffffffffffffffffffffffffffffff1673ffffffffffffffffffffffffffffffffffffffff16145b80610fb7575060d0600060cd600084815260200190815260200160002060009054906101000a900473ffffffffffffffffffffffffffffffffffffffff1673ffffffffffffffffffffffffffffffffffffffff1673ffffffffffffffffffffffffffffffffffffffff16815260200190815260200160002060008373ffffffffffffffffffffffffffffffffffffffff1673ffffffffffffffffffffffffffffffffffffffff16815260200190815260200160002060009054906101000a900460ff165b1515610fc257600080fd5b8360d1600085815260200190815260200160002060006101000a81548173ffffffffffffffffffffffffffffffffffffffff021916908373ffffffffffffffffffffffffffffffffffffffff160217905550828473ffffffffffffffffffffffffffffffffffffffff163373ffffffffffffffffffffffffffffffffffffffff167f8c5be1e5ebec7d5bd14f71427d1e84f3dd0314c0f7b2291e5b200ac8c7c3b92560405160405180910390a450505050565b600061f91763df27425a60d254640aa00ce320020181151561109357fe5b0660d281905550818314156110ab57600090506110c0565b8283830360d2548115156110bb57fe5b060190505b92915050565b60ce6020528060005260406000206000915090505481565b6000809054906101000a900473ffffffffffffffffffffffffffffffffffffffff1673ffffffffffffffffffffffffffffffffffffffff163373ffffffffffffffffffffffffffffffffffffffff1614151561113957600080fd5b80600160006101000a81548173ffffffffffffffffffffffffffffffffffffffff021916908373ffffffffffffffffffffffffffffffffffffffff16021790555050565b6000600280549050905090565b33818173ffffffffffffffffffffffffffffffffffffffff1660cd600083815260200190815260200160002060009054906101000a900473ffffffffffffffffffffffffffffffffffffffff1673ffffffffffffffffffffffffffffffffffffffff16148061125757508173ffffffffffffffffffffffffffffffffffffffff1660d1600083815260200190815260200160002060009054906101000a900473ffffffffffffffffffffffffffffffffffffffff1673ffffffffffffffffffffffffffffffffffffffff16145b8061131b575060d0600060cd600084815260200190815260200160002060009054906101000a900473ffffffffffffffffffffffffffffffffffffffff1673ffffffffffffffffffffffffffffffffffffffff1673ffffffffffffffffffffffffffffffffffffffff16815260200190815260200160002060008373ffffffffffffffffffffffffffffffffffffffff1673ffffffffffffffffffffffffffffffffffffffff16815260200190815260200160002060009054906101000a900460ff165b151561132657600080fd5b600073ffffffffffffffffffffffffffffffffffffffff168473ffffffffffffffffffffffffffffffffffffffff1614158015611367575060028054905083105b801561139e575060028381548110151561137d57fe5b906000526020600020906003020160020160009054906101000a900460ff16155b15156113a957600080fd5b6113b1614064565b8360cd600085815260200190815260200160002060006101000a81548173ffffffffffffffffffffffffffffffffffffffff021916908373ffffffffffffffffffffffffffffffffffffffff16021790555060cf60008573ffffffffffffffffffffffffffffffffffffffff1673ffffffffffffffffffffffffffffffffffffffff1681526020019081526020016000206000815480929190600101919050555060cf60008673ffffffffffffffffffffffffffffffffffffffff1673ffffffffffffffffffffffffffffffffffffffff1681526020019081526020016000206000815480929190600190039190505550828473ffffffffffffffffffffffffffffffffffffffff168673ffffffffffffffffffffffffffffffffffffffff167fddf252ad1be2c89b69c2b068fc378daa952ba7f163c4a11628f55a4df523b3ef60405160405180910390a45050505050565b33818173ffffffffffffffffffffffffffffffffffffffff1660cd600083815260200190815260200160002060009054906101000a900473ffffffffffffffffffffffffffffffffffffffff1673ffffffffffffffffffffffffffffffffffffffff1614806115d157508173ffffffffffffffffffffffffffffffffffffffff1660d1600083815260200190815260200160002060009054906101000a900473ffffffffffffffffffffffffffffffffffffffff1673ffffffffffffffffffffffffffffffffffffffff16145b80611695575060d0600060cd600084815260200190815260200160002060009054906101000a900473ffffffffffffffffffffffffffffffffffffffff1673ffffffffffffffffffffffffffffffffffffffff1673ffffffffffffffffffffffffffffffffffffffff16815260200190815260200160002060008373ffffffffffffffffffffffffffffffffffffffff1673ffffffffffffffffffffffffffffffffffffffff16815260200190815260200160002060009054906101000a900460ff165b15156116a057600080fd5b6116bc8585856020604051908101604052806000815250612e7a565b5050505050565b60008073ffffffffffffffffffffffffffffffffffffffff1660cd600084815260200190815260200160002060009054906101000a900473ffffffffffffffffffffffffffffffffffffffff1673ffffffffffffffffffffffffffffffffffffffff161415151561173357600080fd5b60cd600083815260200190815260200160002060009054906101000a900473ffffffffffffffffffffffffffffffffffffffff169050919050565b600080600061177b615a63565b60008060008734101580156117de57506064606760003373ffffffffffffffffffffffffffffffffffffffff1673ffffffffffffffffffffffffffffffffffffffff16815260200190815260200160002060006002811015156117da57fe5b0154145b15156117e957600080fd5b600096505b6005871015611954573373ffffffffffffffffffffffffffffffffffffffff1660cd60008b8a60058110151561182057fe5b602002013563ffffffff1663ffffffff16815260200190815260200160002060009054906101000a900473ffffffffffffffffffffffffffffffffffffffff1673ffffffffffffffffffffffffffffffffffffffff161480156118cc57506002898860058110151561188e57fe5b602002013563ffffffff1663ffffffff168154811015156118ab57fe5b906000526020600020906003020160020160009054906101000a900460ff16155b15156118d757600080fd5b600095505b60058610156119475788866005811015156118f357fe5b602002013563ffffffff1663ffffffff16898860058110151561191257fe5b602002013563ffffffff1663ffffffff1614158061192f57508587145b151561193a57600080fd5b85806001019650506118dc565b86806001019750506117ee565b600096505b60058710156119da576002898860058110151561197257fe5b602002013563ffffffff1663ffffffff1681548110151561198f57fe5b906000526020600020906003020160000160039054906101000a900460ff1684886005811015156119bc57fe5b602002019060ff16908160ff16815250508680600101975050611959565b600196505b6005871015611aa45783876005811015156119f657fe5b602002015192506001870395505b60008610158015611a2c57508386600581101515611a1e57fe5b602002015160ff168360ff16105b15611a74578386600581101515611a3f57fe5b60200201518460018801600581101515611a5557fe5b602002019060ff16908160ff1681525050858060019003965050611a04565b828460018801600581101515611a8657fe5b602002019060ff16908160ff168152505086806001019750506119df565b6001846002600581101515611ab557fe5b60200201510360ff16945060d36006600d81101515611ad057fe5b600491828204019190066008029054906101000a900467ffffffffffffffff1667ffffffffffffffff16851015611b3e5760d36006600d81101515611b1157fe5b600491828204019190066008029054906101000a900467ffffffffffffffff1667ffffffffffffffff1694505b60d36006600d81101515611b4e57fe5b600491828204019190066008029054906101000a900467ffffffffffffffff1667ffffffffffffffff16850396505b60d36006600d81101515611b8d57fe5b600491828204019190066008029054906101000a900467ffffffffffffffff1667ffffffffffffffff1685018711158015611bc85750606487105b15611d6d576000606888606481101515611bde57fe5b01541415611beb57611d60565b611c066000606889606481101515611bff57fe5b0154611075565b91508195505b81606888606481101515611c1c57fe5b015401861015611d5f57606887606481101515611c3557fe5b015486811515611c4157fe5b06905034600388606481101515611c5457fe5b0160008381526020019081526020016000206002015411158015611c9c575087600388606481101515611c8357fe5b0160008381526020019081526020016000206003015410155b8015611d1857503373ffffffffffffffffffffffffffffffffffffffff16600388606481101515611cc957fe5b01600083815260200190815260200160002060000160009054906101000a900473ffffffffffffffffffffffffffffffffffffffff1673ffffffffffffffffffffffffffffffffffffffff1614155b15611d5257611d4d87828b6005806020026040519081016040528092919082600560200280828437820191505050505061411a565b611f7b565b8580600101965050611c0c565b5b8680600101975050611b7d565b600096505b6005871015611de057600160028a6000600581101515611d8e57fe5b602002013563ffffffff1663ffffffff16815481101515611dab57fe5b906000526020600020906003020160020160006101000a81548160ff0219169083151502179055508680600101975050611d72565b6080604051908101604052803373ffffffffffffffffffffffffffffffffffffffff1681526020018a60058060200260405190810160405280929190826005602002808284378201915050505050815260200189815260200134815250600386606481101515611e4c57fe5b016000606888606481101515611e5e57fe5b0154815260200190815260200160002060008201518160000160006101000a81548173ffffffffffffffffffffffffffffffffffffffff021916908373ffffffffffffffffffffffffffffffffffffffff160217905550602082015181600101906005611ecc929190615a86565b506040820151816002015560608201518160030155905050606885606481101515611ef357fe5b016000815480929190600101919050555060408051908101604052808681526020016001606888606481101515611f2657fe5b015403815250606760003373ffffffffffffffffffffffffffffffffffffffff1673ffffffffffffffffffffffffffffffffffffffff168152602001908152602001600020906002611f79929190615b29565b505b505050505050505050565b60008073ffffffffffffffffffffffffffffffffffffffff168273ffffffffffffffffffffffffffffffffffffffff1614151515611fc357600080fd5b60cf60008373ffffffffffffffffffffffffffffffffffffffff1673ffffffffffffffffffffffffffffffffffffffff168152602001908152602001600020549050919050565b600160009054906101000a900473ffffffffffffffffffffffffffffffffffffffff1673ffffffffffffffffffffffffffffffffffffffff163373ffffffffffffffffffffffffffffffffffffffff1614151561206657600080fd5b600160009054906101000a900473ffffffffffffffffffffffffffffffffffffffff1673ffffffffffffffffffffffffffffffffffffffff166000809054906101000a900473ffffffffffffffffffffffffffffffffffffffff1673ffffffffffffffffffffffffffffffffffffffff167f8be0079c531659141344cd1fd0a4f28419497f9722a3daafe3b4186f6b6457e060405160405180910390a3336000806101000a81548173ffffffffffffffffffffffffffffffffffffffff021916908373ffffffffffffffffffffffffffffffffffffffff160217905550565b60028263ffffffff1681548110151561215a57fe5b906000526020600020906003020160020160009054906101000a900460ff1615806121a45750600060cc60008463ffffffff1663ffffffff16815260200190815260200160002054115b801561221457503373ffffffffffffffffffffffffffffffffffffffff1660cd60008463ffffffff16815260200190815260200160002060009054906101000a900473ffffffffffffffffffffffffffffffffffffffff1673ffffffffffffffffffffffffffffffffffffffff16145b151561221f57600080fd5b8060cc60008463ffffffff1663ffffffff1681526020019081526020016000208190555060008114612252576001612255565b60005b60028363ffffffff1681548110151561226a57fe5b906000526020600020906003020160020160006101000a81548160ff021916908315150217905550803373ffffffffffffffffffffffffffffffffffffffff167ff924003c65581b32c1ca2123e131a27f2124f08fce76c9a94c102c80c2d5b4a684604051808263ffffffff1663ffffffff16815260200191505060405180910390a35050565b60cc6020528060005260406000206000915090505481565b60d381600d8110151561231857fe5b60049182820401919006600802915054906101000a900467ffffffffffffffff1681565b8060d060003373ffffffffffffffffffffffffffffffffffffffff1673ffffffffffffffffffffffffffffffffffffffff16815260200190815260200160002060008473ffffffffffffffffffffffffffffffffffffffff1673ffffffffffffffffffffffffffffffffffffffff16815260200190815260200160002060006101000a81548160ff0219169083151502179055508173ffffffffffffffffffffffffffffffffffffffff163373ffffffffffffffffffffffffffffffffffffffff167f17307eab39ab6107e8899845ad3d59bd9653f200f220920489ca2b5937696c3183604051808215151515815260200191505060405180910390a35050565b600080600060cc60008563ffffffff1663ffffffff1681526020019081526020016000205411801561248e575060cc60008463ffffffff1663ffffffff168152602001908152602001600020543410155b151561249957600080fd5b600060cc60008563ffffffff1663ffffffff1681526020019081526020016000208190555060cd60008463ffffffff16815260200190815260200160002060009054906101000a900473ffffffffffffffffffffffffffffffffffffffff16915061271061254960d36009600d8110151561251057fe5b600491828204019190066008029054906101000a900467ffffffffffffffff1667ffffffffffffffff1634614dd990919063ffffffff16565b81151561255257fe5b0490506125b9816125ab3460ce60008773ffffffffffffffffffffffffffffffffffffffff1673ffffffffffffffffffffffffffffffffffffffff16815260200190815260200160002054614e1190919063ffffffff16565b614e3090919063ffffffff16565b60ce60008473ffffffffffffffffffffffffffffffffffffffff1673ffffffffffffffffffffffffffffffffffffffff1681526020019081526020016000208190555061266f8160ce60008060009054906101000a900473ffffffffffffffffffffffffffffffffffffffff1673ffffffffffffffffffffffffffffffffffffffff1673ffffffffffffffffffffffffffffffffffffffff16815260200190815260200160002054614e1190919063ffffffff16565b60ce60008060009054906101000a900473ffffffffffffffffffffffffffffffffffffffff1673ffffffffffffffffffffffffffffffffffffffff1673ffffffffffffffffffffffffffffffffffffffff168152602001908152602001600020819055503360d160008563ffffffff16815260200190815260200160002060006101000a81548173ffffffffffffffffffffffffffffffffffffffff021916908373ffffffffffffffffffffffffffffffffffffffff1602179055508263ffffffff163373ffffffffffffffffffffffffffffffffffffffff168373ffffffffffffffffffffffffffffffffffffffff167f8c5be1e5ebec7d5bd14f71427d1e84f3dd0314c0f7b2291e5b200ac8c7c3b92560405160405180910390a4600060028463ffffffff168154811015156127a357fe5b906000526020600020906003020160020160006101000a81548160ff0219169083151502179055506127dc82338563ffffffff1661118a565b505050565b600080600080600080600060d36002600d811015156127fc57fe5b600491828204019190066008029054906101000a900467ffffffffffffffff1667ffffffffffffffff163410151561286f5760d36005600d8110151561283e57fe5b600491828204019190066008029054906101000a900467ffffffffffffffff1667ffffffffffffffff16965061297c565b60d36001600d8110151561287f57fe5b600491828204019190066008029054906101000a900467ffffffffffffffff1667ffffffffffffffff16341015156128f25760d36004600d811015156128c157fe5b600491828204019190066008029054906101000a900467ffffffffffffffff1667ffffffffffffffff16965061297b565b60d36000600d8110151561290257fe5b600491828204019190066008029054906101000a900467ffffffffffffffff1667ffffffffffffffff16341015156129755760d36003600d8110151561294457fe5b600491828204019190066008029054906101000a900467ffffffffffffffff1667ffffffffffffffff16965061297a565b600080fd5b5b5b612984614064565b600094505b6006851015612c6a573360cd6000600280549050815260200190815260200160002060006101000a81548173ffffffffffffffffffffffffffffffffffffffff021916908373ffffffffffffffffffffffffffffffffffffffff1602179055506129f860008861271003611075565b93506001841415612a1457601192506015915060039050612a57565b600b841015612a2e57600e92506011915060029050612a56565b60c8841015612a4857600b9250600e915060019050612a55565b60089250600b9150600090505b5b5b600260e060405190810160405280612a6f8686611075565b60ff168152602001612a818686611075565b60ff168152602001612a938686611075565b60ff168152602001600160ff1681526020018360ff16815260200160008152602001600015158152509080600181540180825580915050906001820390600052602060002090600302016000909192909190915060008201518160000160006101000a81548160ff021916908360ff16021790555060208201518160000160016101000a81548160ff021916908360ff16021790555060408201518160000160026101000a81548160ff021916908360ff16021790555060608201518160000160036101000a81548160ff021916908360ff16021790555060808201518160000160046101000a81548160ff021916908360ff16021790555060a0820151816001015560c08201518160020160006101000a81548160ff0219169083151502179055505050506001600280549050033373ffffffffffffffffffffffffffffffffffffffff16600073ffffffffffffffffffffffffffffffffffffffff167fddf252ad1be2c89b69c2b068fc378daa952ba7f163c4a11628f55a4df523b3ef60405160405180910390a46001600280549050038686600681101515612c3457fe5b600891828204019190066004026101000a81548163ffffffff021916908363ffffffff1602179055508480600101955050612989565b3373ffffffffffffffffffffffffffffffffffffffff167fad1f291efd41642f8dfebb6bfc7fae8725716b968743bac9010db2a02a126f4587604051808260068015612cf7576020028201916000905b82829054906101000a900463ffffffff1663ffffffff1681526020019060040190602082600301049283019260010382029150808411612cba5790505b505091505060405180910390a2612d57600660cf60003373ffffffffffffffffffffffffffffffffffffffff1673ffffffffffffffffffffffffffffffffffffffff16815260200190815260200160002054614e1190919063ffffffff16565b60cf60003373ffffffffffffffffffffffffffffffffffffffff1673ffffffffffffffffffffffffffffffffffffffff16815260200190815260200160002081905550612e0d3460ce60008060009054906101000a900473ffffffffffffffffffffffffffffffffffffffff1673ffffffffffffffffffffffffffffffffffffffff1673ffffffffffffffffffffffffffffffffffffffff16815260200190815260200160002054614e1190919063ffffffff16565b60ce60008060009054906101000a900473ffffffffffffffffffffffffffffffffffffffff1673ffffffffffffffffffffffffffffffffffffffff1673ffffffffffffffffffffffffffffffffffffffff1681526020019081526020016000208190555050505050505050565b600033838173ffffffffffffffffffffffffffffffffffffffff1660cd600083815260200190815260200160002060009054906101000a900473ffffffffffffffffffffffffffffffffffffffff1673ffffffffffffffffffffffffffffffffffffffff161480612f4957508173ffffffffffffffffffffffffffffffffffffffff1660d1600083815260200190815260200160002060009054906101000a900473ffffffffffffffffffffffffffffffffffffffff1673ffffffffffffffffffffffffffffffffffffffff16145b8061300d575060d0600060cd600084815260200190815260200160002060009054906101000a900473ffffffffffffffffffffffffffffffffffffffff1673ffffffffffffffffffffffffffffffffffffffff1673ffffffffffffffffffffffffffffffffffffffff16815260200190815260200160002060008373ffffffffffffffffffffffffffffffffffffffff1673ffffffffffffffffffffffffffffffffffffffff16815260200190815260200160002060009054906101000a900460ff165b151561301857600080fd5b61302387878761118a565b61302c86614e4c565b156131ee578573ffffffffffffffffffffffffffffffffffffffff1663f0b9e5ba8887876040518463ffffffff167c0100000000000000000000000000000000000000000000000000000000028152600401808473ffffffffffffffffffffffffffffffffffffffff1673ffffffffffffffffffffffffffffffffffffffff16815260200183815260200180602001828103825283818151815260200191508051906020019080838360005b838110156130f35780820151818401526020810190506130d8565b50505050905090810190601f1680156131205780820380516001836020036101000a031916815260200191505b50945050505050602060405180830381600087803b15801561314157600080fd5b505af1158015613155573d6000803e3d6000fd5b505050506040513d602081101561316b57600080fd5b8101908080519060200190929190505050925063f0b9e5ba7c0100000000000000000000000000000000000000000000000000000000027bffffffffffffffffffffffffffffffffffffffffffffffffffffffff1916837bffffffffffffffffffffffffffffffffffffffffffffffffffffffff19161415156131ed57600080fd5b5b50505050505050565b60028181548110151561320657fe5b90600052602060002090600302016000915090508060000160009054906101000a900460ff16908060000160019054906101000a900460ff16908060000160029054906101000a900460ff16908060000160039054906101000a900460ff16908060000160049054906101000a900460ff16908060010154908060020160009054906101000a900460ff16905087565b6000809054906101000a900473ffffffffffffffffffffffffffffffffffffffff1673ffffffffffffffffffffffffffffffffffffffff163373ffffffffffffffffffffffffffffffffffffffff161415156132f157600080fd5b60008161ffff161015801561330a5750600c8260ff1611155b151561331557600080fd5b8160ff167fd7dd2782a7cef7ee43cf5a86222e0655f51235bf832cc5859c1687c29799fa7360d38460ff16600d8110151561334c57fe5b600491828204019190066008029054906101000a900467ffffffffffffffff1683604051808367ffffffffffffffff1681526020018261ffff1681526020019250505060405180910390a28061ffff1660d38360ff16600d811015156133ae57fe5b600491828204019190066008026101000a81548167ffffffffffffffff021916908367ffffffffffffffff1602179055505050565b600060d060008473ffffffffffffffffffffffffffffffffffffffff1673ffffffffffffffffffffffffffffffffffffffff16815260200190815260200160002060008373ffffffffffffffffffffffffffffffffffffffff1673ffffffffffffffffffffffffffffffffffffffff16815260200190815260200160002060009054906101000a900460ff16905092915050565b6000806000606760003373ffffffffffffffffffffffffffffffffffffffff1673ffffffffffffffffffffffffffffffffffffffff16815260200190815260200160002060006002811015156134c957fe5b01549250606483141515156134dd57600080fd5b606760003373ffffffffffffffffffffffffffffffffffffffff1673ffffffffffffffffffffffffffffffffffffffff168152602001908152602001600020600160028110151561352a57fe5b015491506135e860038460648110151561354057fe5b0160008481526020019081526020016000206003015460ce600060038760648110151561356957fe5b01600087815260200190815260200160002060000160009054906101000a900473ffffffffffffffffffffffffffffffffffffffff1673ffffffffffffffffffffffffffffffffffffffff1673ffffffffffffffffffffffffffffffffffffffff16815260200190815260200160002054614e1190919063ffffffff16565b60ce60006003866064811015156135fb57fe5b01600086815260200190815260200160002060000160009054906101000a900473ffffffffffffffffffffffffffffffffffffffff1673ffffffffffffffffffffffffffffffffffffffff1673ffffffffffffffffffffffffffffffffffffffff16815260200190815260200160002081905550600090505b6005811015613715576000600260038560648110151561369057fe5b016000858152602001908152602001600020600101836005811015156136b257fe5b600891828204019190066004029054906101000a900463ffffffff1663ffffffff168154811015156136e057fe5b906000526020600020906003020160020160006101000a81548160ff0219169083151502179055508080600101915050613674565b60038360648110151561372457fe5b016000600160688660648110151561373857fe5b015403815260200190815260200160002060038460648110151561375857fe5b0160008481526020019081526020016000206000820160009054906101000a900473ffffffffffffffffffffffffffffffffffffffff168160000160006101000a81548173ffffffffffffffffffffffffffffffffffffffff021916908373ffffffffffffffffffffffffffffffffffffffff16021790555060018201816001019060056137e7929190615b69565b50600282015481600201556003820154816003015590505060688360648110151561380e57fe5b0160008154809291906001900391905055506040805190810160405280606460ff168152602001600060ff16815250606760003373ffffffffffffffffffffffffffffffffffffffff1673ffffffffffffffffffffffffffffffffffffffff16815260200190815260200160002090600261388a929190615bb4565b50505050565b63f0b9e5ba7c01000000000000000000000000000000000000000000000000000000000281565b600063f0b9e5ba7c0100000000000000000000000000000000000000000000000000000000029050949350505050565b6000806000888890508b8b905014801561390657508686905089899050145b801561391757508484905087879050145b151561392257600080fd5b600091505b8a8a905082101561405757600092503373ffffffffffffffffffffffffffffffffffffffff1660cd60008d8d86818110151561395f57fe5b9050602002013563ffffffff1663ffffffff16815260200190815260200160002060009054906101000a900473ffffffffffffffffffffffffffffffffffffffff1673ffffffffffffffffffffffffffffffffffffffff161415156139c357600080fd5b5b60028b8b8481811015156139d457fe5b9050602002013563ffffffff1663ffffffff168154811015156139f357fe5b9060005260206000209060030201600101546005600360028e8e878181101515613a1957fe5b9050602002013563ffffffff1663ffffffff16815481101515613a3857fe5b906000526020600020906003020160000160039054906101000a900460ff1660ff160a811515613a6457fe5b0411158015613ac35750606460028c8c858181101515613a8057fe5b9050602002013563ffffffff1663ffffffff16815481101515613a9f57fe5b906000526020600020906003020160000160039054906101000a900460ff1660ff16105b15613b715760028b8b848181101515613ad857fe5b9050602002013563ffffffff1663ffffffff16815481101515613af757fe5b9060005260206000209060030201600001600381819054906101000a900460ff168092919060010191906101000a81548160ff021916908360ff1602179055505060d3600a600d81101515613b4857fe5b600491828204019190066008029054906101000a900467ffffffffffffffff16830192506139c4565b8260ff16613be88686858181101515613b8657fe5b9050602002013560ff1660ff16613bda8a8a878181101515613ba457fe5b9050602002013560ff1660ff168d8d888181101515613bbf57fe5b9050602002013560ff1660ff16614e1190919063ffffffff16565b614e1190919063ffffffff16565b11151515613bf557600080fd5b6014600c600b60028e8e878181101515613c0b57fe5b9050602002013563ffffffff1663ffffffff16815481101515613c2a57fe5b906000526020600020906003020160000160039054906101000a900460ff1660ff16811515613c5557fe5b04020160ff169050613cda8989848181101515613c6e57fe5b9050602002013560ff1660ff1660028d8d868181101515613c8b57fe5b9050602002013563ffffffff1663ffffffff16815481101515613caa57fe5b906000526020600020906003020160000160009054906101000a900460ff1660ff16614e1190919063ffffffff16565b8110158015613d655750613d618787848181101515613cf557fe5b9050602002013560ff1660ff1660028d8d868181101515613d1257fe5b9050602002013563ffffffff1663ffffffff16815481101515613d3157fe5b906000526020600020906003020160000160019054906101000a900460ff1660ff16614e1190919063ffffffff16565b8110155b8015613ded5750613de98585848181101515613d7d57fe5b9050602002013560ff1660ff1660028d8d868181101515613d9a57fe5b9050602002013563ffffffff1663ffffffff16815481101515613db957fe5b906000526020600020906003020160000160029054906101000a900460ff1660ff16614e1190919063ffffffff16565b8110155b1515613df857600080fd5b8888838181101515613e0657fe5b9050602002013560ff1660028c8c858181101515613e2057fe5b9050602002013563ffffffff1663ffffffff16815481101515613e3f57fe5b906000526020600020906003020160000160008282829054906101000a900460ff160192506101000a81548160ff021916908360ff1602179055508686838181101515613e8857fe5b9050602002013560ff1660028c8c858181101515613ea257fe5b9050602002013563ffffffff1663ffffffff16815481101515613ec157fe5b906000526020600020906003020160000160018282829054906101000a900460ff160192506101000a81548160ff021916908360ff1602179055508484838181101515613f0a57fe5b9050602002013560ff1660028c8c858181101515613f2457fe5b9050602002013563ffffffff1663ffffffff16815481101515613f4357fe5b906000526020600020906003020160000160028282829054906101000a900460ff160192506101000a81548160ff021916908360ff1602179055507f8a80140e41ad61a4458124652e64b7c3e9329b7107778fe19106dc675901302b8b8b848181101515613fad57fe5b9050602002013563ffffffff168a8a858181101515613fc857fe5b9050602002013560ff168989868181101515613fe057fe5b9050602002013560ff168888878181101515613ff857fe5b9050602002013560ff16604051808563ffffffff1663ffffffff1681526020018460ff1660ff1681526020018360ff1660ff1681526020018260ff1660ff16815260200194505050505060405180910390a18180600101925050613927565b5050505050505050505050565b600060cf60003373ffffffffffffffffffffffffffffffffffffffff1673ffffffffffffffffffffffffffffffffffffffff168152602001908152602001600020541415614118576040805190810160405280606460ff168152602001600060ff16815250606760003373ffffffffffffffffffffffffffffffffffffffff1673ffffffffffffffffffffffffffffffffffffffff168152602001908152602001600020906002614116929190615bb4565b505b565b614122615bf9565b61412a615c3f565b614132615c3f565b600080600080600080600060038d60648110151561414c57fe5b0160008d8152602001908152602001600020608060405190810160405290816000820160009054906101000a900473ffffffffffffffffffffffffffffffffffffffff1673ffffffffffffffffffffffffffffffffffffffff1673ffffffffffffffffffffffffffffffffffffffff16815260200160018201600580602002604051908101604052809291908260058015614228576020028201916000905b82829054906101000a900463ffffffff1663ffffffff16815260200190600401906020826003010492830192600103820291508084116141eb5790505b5050505050815260200160028201548152602001600382015481525050995060688d60648110151561425657fe5b01600081548092919060019003919050555060038d60648110151561427757fe5b01600060688f60648110151561428957fe5b0154815260200190815260200160002060038e6064811015156142a857fe5b0160008e81526020019081526020016000206000820160009054906101000a900473ffffffffffffffffffffffffffffffffffffffff168160000160006101000a81548173ffffffffffffffffffffffffffffffffffffffff021916908373ffffffffffffffffffffffffffffffffffffffff1602179055506001820181600101906005614337929190615b69565b5060028201548160020155600382015481600301559050506040805190810160405280606460ff168152602001600060ff16815250606760008c6000015173ffffffffffffffffffffffffffffffffffffffff1673ffffffffffffffffffffffffffffffffffffffff1681526020019081526020016000209060026143bd929190615bb4565b5060009c505b60058d10156146ff578a8d6005811015156143da57fe5b6020020151898e6014811015156143ed57fe5b602002019063ffffffff16908163ffffffff168152505060028b8e60058110151561441457fe5b602002015163ffffffff1681548110151561442b57fe5b906000526020600020906003020160000160009054906101000a900460ff1660ff168960058f0160148110151561445e57fe5b602002019063ffffffff16908163ffffffff168152505060028b8e60058110151561448557fe5b602002015163ffffffff1681548110151561449c57fe5b906000526020600020906003020160000160019054906101000a900460ff1660ff1689600a8f016014811015156144cf57fe5b602002019063ffffffff16908163ffffffff168152505060028b8e6005811015156144f657fe5b602002015163ffffffff1681548110151561450d57fe5b906000526020600020906003020160000160029054906101000a900460ff1660ff1689600f8f0160148110151561454057fe5b602002019063ffffffff16908163ffffffff168152505089602001518d60058110151561456957fe5b6020020151888e60148110151561457c57fe5b602002019063ffffffff16908163ffffffff168152505060028a602001518e6005811015156145a757fe5b602002015163ffffffff168154811015156145be57fe5b906000526020600020906003020160000160009054906101000a900460ff1660ff168860058f016014811015156145f157fe5b602002019063ffffffff16908163ffffffff168152505060028a602001518e60058110151561461c57fe5b602002015163ffffffff1681548110151561463357fe5b906000526020600020906003020160000160019054906101000a900460ff1660ff1688600a8f0160148110151561466657fe5b602002019063ffffffff16908163ffffffff168152505060028a602001518e60058110151561469157fe5b602002015163ffffffff168154811015156146a857fe5b906000526020600020906003020160000160029054906101000a900460ff1660ff1688600f8f016014811015156146db57fe5b602002019063ffffffff16908163ffffffff16815250508c806001019d50506143c3565b60009c505b60058d101561476f57600060028b602001518f60058110151561472357fe5b602002015163ffffffff1681548110151561473a57fe5b906000526020600020906003020160020160006101000a81548160ff0219169083151502179055508c806001019d5050614704565b61477d8b8b60200151614e5f565b965060018714156147a1573395508960000151945034935089606001519250614a06565b60028714156147c3578960000151955033945089606001519350349250614a05565b61481d8a6060015160ce60008d6000015173ffffffffffffffffffffffffffffffffffffffff1673ffffffffffffffffffffffffffffffffffffffff16815260200190815260200160002054614e1190919063ffffffff16565b60ce60008c6000015173ffffffffffffffffffffffffffffffffffffffff1673ffffffffffffffffffffffffffffffffffffffff168152602001908152602001600020819055506148b63460ce60003373ffffffffffffffffffffffffffffffffffffffff1673ffffffffffffffffffffffffffffffffffffffff16815260200190815260200160002054614e1190919063ffffffff16565b60ce60003373ffffffffffffffffffffffffffffffffffffffff1673ffffffffffffffffffffffffffffffffffffffff16815260200190815260200160002081905550868a6000015173ffffffffffffffffffffffffffffffffffffffff163373ffffffffffffffffffffffffffffffffffffffff167fdeb604bc66f2db85002d49e5e9a738a68e2f5b127db21e1e4632affedb74b9d78c8c60d3600b600d8110151561495f57fe5b600491828204019190066008029054906101000a900467ffffffffffffffff16886040518085601460200280838360005b838110156149ab578082015181840152602081019050614990565b5050505090500184601460200280838360005b838110156149d95780820151818401526020810190506149be565b505050509050018360ff1660ff16815260200182815260200194505050505060405180910390a4614dca565b5b348a606001511115614a1a57349150614a22565b896060015191505b612710614a7160d36009600d81101515614a3857fe5b600491828204019190066008029054906101000a900467ffffffffffffffff1667ffffffffffffffff1684614dd990919063ffffffff16565b811515614a7a57fe5b049050614af384614ae583614ad78660ce60008d73ffffffffffffffffffffffffffffffffffffffff1673ffffffffffffffffffffffffffffffffffffffff16815260200190815260200160002054614e1190919063ffffffff16565b614e3090919063ffffffff16565b614e1190919063ffffffff16565b60ce60008873ffffffffffffffffffffffffffffffffffffffff1673ffffffffffffffffffffffffffffffffffffffff16815260200190815260200160002081905550614b9a82614b8c8560ce60008a73ffffffffffffffffffffffffffffffffffffffff1673ffffffffffffffffffffffffffffffffffffffff16815260200190815260200160002054614e1190919063ffffffff16565b614e3090919063ffffffff16565b60ce60008773ffffffffffffffffffffffffffffffffffffffff1673ffffffffffffffffffffffffffffffffffffffff16815260200190815260200160002081905550614c508160ce60008060009054906101000a900473ffffffffffffffffffffffffffffffffffffffff1673ffffffffffffffffffffffffffffffffffffffff1673ffffffffffffffffffffffffffffffffffffffff16815260200190815260200160002054614e1190919063ffffffff16565b60ce60008060009054906101000a900473ffffffffffffffffffffffffffffffffffffffff1673ffffffffffffffffffffffffffffffffffffffff1673ffffffffffffffffffffffffffffffffffffffff16815260200190815260200160002081905550868a6000015173ffffffffffffffffffffffffffffffffffffffff163373ffffffffffffffffffffffffffffffffffffffff167fdeb604bc66f2db85002d49e5e9a738a68e2f5b127db21e1e4632affedb74b9d78c8c60d3600b600d81101515614d1a57fe5b600491828204019190066008029054906101000a900467ffffffffffffffff16886040518085601460200280838360005b83811015614d66578082015181840152602081019050614d4b565b5050505090500184601460200280838360005b83811015614d94578082015181840152602081019050614d79565b505050509050018360ff1660ff16815260200182815260200194505050505060405180910390a4614dc9338b6000015161565f565b5b50505050505050505050505050565b600080831415614dec5760009050614e0b565b8183029050818382811515614dfd57fe5b04141515614e0757fe5b8090505b92915050565b60008183019050828110151515614e2757600080fd5b80905092915050565b6000828211151515614e4157600080fd5b818303905092915050565b600080823b905060008111915050919050565b6000806000614e6c615c63565b614e74615c63565b600080945060009350600090505b60058110156150c65760806040519081016040528060028a84600581101515614ea757fe5b602002015163ffffffff16815481101515614ebe57fe5b906000526020600020906003020160000160009054906101000a900460ff1660ff16815260200160028a84600581101515614ef557fe5b602002015163ffffffff16815481101515614f0c57fe5b906000526020600020906003020160000160019054906101000a900460ff1660ff16815260200160028a84600581101515614f4357fe5b602002015163ffffffff16815481101515614f5a57fe5b906000526020600020906003020160000160029054906101000a900460ff1660ff168152602001600063ffffffff168152508382600681101515614f9a57fe5b602002018190525060806040519081016040528060028984600581101515614fbe57fe5b602002015163ffffffff16815481101515614fd557fe5b906000526020600020906003020160000160009054906101000a900460ff1660ff1681526020016002898460058110151561500c57fe5b602002015163ffffffff1681548110151561502357fe5b906000526020600020906003020160000160019054906101000a900460ff1660ff1681526020016002898460058110151561505a57fe5b602002015163ffffffff1681548110151561507157fe5b906000526020600020906003020160000160029054906101000a900460ff1660ff168152602001600063ffffffff1681525082826006811015156150b157fe5b60200201819052508080600101915050614e82565b600090505b60058110156156155781816006811015156150e257fe5b60200201516040015160ff1683826006811015156150fc57fe5b60200201516040015160ff16111561521b57818160068110151561511c57fe5b60200201516020015160ff16838260068110151561513657fe5b60200201516000015160ff1611156151b157848060010195505060d3600b600d8110151561516057fe5b600491828204019190066008029054906101000a900467ffffffffffffffff16836001830160068110151561519157fe5b60200201516000018181510191509060ff16908160ff1681525050615216565b838060010194505060d3600b600d811015156151c957fe5b600491828204019190066008029054906101000a900467ffffffffffffffff1682600183016006811015156151fa57fe5b60200201516020018181510191509060ff16908160ff16815250505b615608565b818160068110151561522957fe5b60200201516040015160ff16838260068110151561524357fe5b60200201516040015160ff16101561536257828160068110151561526357fe5b60200201516020015160ff16828260068110151561527d57fe5b60200201516000015160ff1611156152f857838060010194505060d3600b600d811015156152a757fe5b600491828204019190066008029054906101000a900467ffffffffffffffff1682600183016006811015156152d857fe5b60200201516000018181510191509060ff16908160ff168152505061535d565b848060010195505060d3600b600d8110151561531057fe5b600491828204019190066008029054906101000a900467ffffffffffffffff16836001830160068110151561534157fe5b60200201516020018181510191509060ff16908160ff16815250505b615607565b818160068110151561537057fe5b60200201516000015160ff16838260068110151561538a57fe5b60200201516000015160ff16111561540557848060010195505060d3600b600d811015156153b457fe5b600491828204019190066008029054906101000a900467ffffffffffffffff1683600183016006811015156153e557fe5b60200201516000018181510191509060ff16908160ff1681525050615606565b818160068110151561541357fe5b60200201516000015160ff16838260068110151561542d57fe5b60200201516000015160ff1610156154a857838060010194505060d3600b600d8110151561545757fe5b600491828204019190066008029054906101000a900467ffffffffffffffff16826001830160068110151561548857fe5b60200201516020018181510191509060ff16908160ff1681525050615605565b81816006811015156154b657fe5b60200201516020015160ff1683826006811015156154d057fe5b60200201516020015160ff16111561554b57848060010195505060d3600b600d811015156154fa57fe5b600491828204019190066008029054906101000a900467ffffffffffffffff16836001830160068110151561552b57fe5b60200201516020018181510191509060ff16908160ff1681525050615604565b828160068110151561555957fe5b60200201516020015160ff16838260068110151561557357fe5b60200201516020015160ff1610156155ee57838060010194505060d3600b600d8110151561559d57fe5b600491828204019190066008029054906101000a900467ffffffffffffffff1682600183016006811015156155ce57fe5b60200201516020018181510191509060ff16908160ff1681525050615603565b6155fa88886001615802565b60009550615654565b5b5b5b5b5b80806001019150506150cb565b61563d8486116156255787615627565b885b8587106156345788615636565b895b6000615802565b83851161564b57600261564e565b60015b60ff1695505b505050505092915050565b600060ce60008473ffffffffffffffffffffffffffffffffffffffff1673ffffffffffffffffffffffffffffffffffffffff168152602001908152602001600020549050600060ce60008573ffffffffffffffffffffffffffffffffffffffff1673ffffffffffffffffffffffffffffffffffffffff168152602001908152602001600020819055508273ffffffffffffffffffffffffffffffffffffffff166108fc829081150290604051600060405180830381858888f1935050505015801561572e573d6000803e3d6000fd5b5060ce60008373ffffffffffffffffffffffffffffffffffffffff1673ffffffffffffffffffffffffffffffffffffffff168152602001908152602001600020549050600060ce60008473ffffffffffffffffffffffffffffffffffffffff1673ffffffffffffffffffffffffffffffffffffffff168152602001908152602001600020819055508173ffffffffffffffffffffffffffffffffffffffff166108fc829081150290604051600060405180830381858888f193505050501580156157fc573d6000803e3d6000fd5b50505050565b60008090505b6005811015615a5d5760646002858360058110151561582357fe5b602002015163ffffffff1681548110151561583a57fe5b906000526020600020906003020160000160039054906101000a900460ff1660ff1610156159135760d36007600d8110151561587257fe5b600491828204019190066008029054906101000a900467ffffffffffffffff1667ffffffffffffffff16600285836005811015156158ac57fe5b602002015163ffffffff168154811015156158c357fe5b90600052602060002090600302016001015401600285836005811015156158e657fe5b602002015163ffffffff168154811015156158fd57fe5b9060005260206000209060030201600101819055505b60646002848360058110151561592557fe5b602002015163ffffffff1681548110151561593c57fe5b906000526020600020906003020160000160039054906101000a900460ff1660ff161015615a50578161599e5760d36008600d8110151561597957fe5b600491828204019190066008029054906101000a900467ffffffffffffffff166159cf565b60d36007600d811015156159ae57fe5b600491828204019190066008029054906101000a900467ffffffffffffffff165b67ffffffffffffffff16600284836005811015156159e957fe5b602002015163ffffffff16815481101515615a0057fe5b9060005260206000209060030201600101540160028483600581101515615a2357fe5b602002015163ffffffff16815481101515615a3a57fe5b9060005260206000209060030201600101819055505b8080600101915050615808565b50505050565b60a060405190810160405280600590602082028038833980820191505090505090565b826005600701600890048101928215615b185791602002820160005b83821115615ae657835183826101000a81548163ffffffff021916908363ffffffff1602179055509260200192600401602081600301049283019260010302615aa2565b8015615b165782816101000a81549063ffffffff0219169055600401602081600301049283019260010302615ae6565b505b509050615b259190615c92565b5090565b8260028101928215615b58579160200282015b82811115615b57578251825591602001919060010190615b3c565b5b509050615b659190615cc5565b5090565b826005600701600890048101928215615ba357916007016008900482015b82811115615ba2578254825591600101919060010190615b87565b5b509050615bb09190615c92565b5090565b8260028101928215615be8579160200282015b82811115615be7578251829060ff16905591602001919060010190615bc7565b5b509050615bf59190615cc5565b5090565b61010060405190810160405280600073ffffffffffffffffffffffffffffffffffffffff168152602001615c2b615cea565b815260200160008152602001600081525090565b61028060405190810160405280601490602082028038833980820191505090505090565b610300604051908101604052806006905b615c7c615d0d565b815260200190600190039081615c745790505090565b615cc291905b80821115615cbe57600081816101000a81549063ffffffff021916905550600101615c98565b5090565b90565b615ce791905b80821115615ce3576000816000905550600101615ccb565b5090565b90565b60a060405190810160405280600590602082028038833980820191505090505090565b608060405190810160405280600060ff168152602001600060ff168152602001600060ff168152602001600063ffffffff16815250905600a165627a7a7230582085dc2259f4f76fae415d38d1c6164b4ff1984a02f1186494b5c48ef7dc75c7cb0029",
  "source": "pragma solidity ^0.4.24;\n\nimport \"./AdminPanel.sol\";\nimport \"./SafeMath.sol\";\n\n\ncontract CryptoMon is AdminPanel {\n\n    using SafeMath for uint8;\n\n    constructor() public {\n        seed = now;\n    }\n\n    function unbox()\n        external\n        payable\n    {\n        uint256 _modifier;\n        if (msg.value >= params[2]) {\n            _modifier = params[5];\n        } else if (msg.value >= params[1]) {\n            _modifier = params[4];\n        } else if (msg.value >= params[0]) {\n            _modifier = params[3];\n        } else {\n            revert();\n        }\n\n        firstLogin();\n\n        uint32[6] _ids;\n\n        for (uint256 i = 0; i < 6; i++) {\n            owner[monsters.length] = msg.sender;\n            uint256 _tmp = randInt(0, 10000-_modifier);\n            uint256 _modRarityMin;\n            uint256 _modRarityMax;\n            uint8 _rarity;\n\n            if (_tmp == 1) {\n                _modRarityMin = 17;\n                _modRarityMax = 21;\n                _rarity = 3;\n            } else if (_tmp < 11) {\n                _modRarityMin = 14;\n                _modRarityMax = 17;\n                _rarity = 2;\n            } else if (_tmp < 200) {\n                _modRarityMin = 11;\n                _modRarityMax = 14;\n                _rarity = 1;\n            } else {\n                _modRarityMin = 8;\n                _modRarityMax = 11;\n                _rarity = 0;\n            }\n\n            monsters.push(\n                Monster(\n                    uint8(randInt(_modRarityMin, _modRarityMax)),\n                    uint8(randInt(_modRarityMin, _modRarityMax)),\n                    uint8(randInt(_modRarityMin, _modRarityMax)),\n                    1,\n                    _rarity,\n                    0,\n                    false\n                )\n            );\n\n            emit Transfer(address(0), msg.sender, monsters.length - 1);\n            _ids[i] = uint32(monsters.length - 1);\n        }\n\n        emit Unboxed(msg.sender, _ids);\n\n        balances[msg.sender] = balances[msg.sender].add(6);\n        money[contractOwner] = money[contractOwner].add(msg.value);\n    }\n\n    function fight(uint32[5] _ids, uint256 _minBet)\n        external\n        payable\n    {\n        //Check that you actually payed at least your minimum bet and that you are not already waiting.\n        require(msg.value >= _minBet && isWaiting[msg.sender][0] == 100);\n        for (uint256 i = 0; i < 5; i++) {\n            //Check that you own all of the monsters you want to use to attack and that they aren't busy\n            require(owner[_ids[i]] == msg.sender && !monsters[_ids[i]].busy);\n            for (uint256 j = 0; j < 5; j++) {\n                //check that there aren't any duplicates in your squad\n                require(_ids[i] != _ids[j] || i == j);\n            }\n        }\n\n        //Sets the matchmaking level.\n        uint256 _level;\n        uint8[5] memory _tmp;\n        for (i = 0; i < 5; i++)\n            _tmp[i] = monsters[_ids[i]].lvl;\n\n        //Insertion sort algorithm\n        for (i = 1; i < 5; i++) {\n            uint8 temp = _tmp[i];\n            for (j = i - 1; j >= 0 && temp < _tmp[j]; j--)\n                _tmp[j+1] = _tmp[j];\n            _tmp[j + 1] = temp;\n        }\n\n        //The waiting queue has only 100 spaces, this means that its last index is 99, not 100.\n        _level = _tmp[2] - 1;\n\n        //Used to prevent underflow. More efficient than doing other checks\n        if (_level < params[6])\n            _level = params[6];\n\n        //Checks for every level in range.\n        for (i = _level - params[6]; i <= _level + params[6] && i < 100; i++) {\n\n            //Skips current range to save gas and prevent errors when using %0\n            if (waitingLength[i] == 0)\n                continue;\n\n            //Checks for every person in the current waiting level to find someone who has the same bet range as you.\n            //Starts to check from a random position in the array, to prevent unlucky people from never playing.\n            //Note that waiting is an array of mappings, this is because arrays are broken, and .length is not\n            //reset after deleting the last element.\n            uint256 _start = randInt(0, waitingLength[i]);\n            for (j = _start; j < waitingLength[i] + _start; j++) {\n                //j needs to be \"modulized\", to loop back in front of the array.\n                uint256 j_ = j % waitingLength[i];\n\n                //If it finds someone the fight starts and the functions returns.\n                if (\n                    waiting[i][j_].minBet <= msg.value &&\n                    waiting[i][j_].bet >= _minBet &&\n                    waiting[i][j_].addr != msg.sender\n                )\n                    return computeBattleResults(i, j_, _ids);\n            }\n        }\n\n        //If the contract couldn\"t find anyone, it puts you in the waiting list.\n        //All of your monsters are marked as busy.\n        for (i = 0; i < 5; i++)\n            monsters[_ids[0]].busy = true;\n\n        waiting[_level][waitingLength[_level]] = Defender(\n            msg.sender,\n            _ids,\n            _minBet,\n            msg.value\n        );\n\n        waitingLength[_level]++;\n\n        //Sets waiting state\n        isWaiting[msg.sender] = [_level, waitingLength[_level] - 1];\n    }\n\n    function stopWaiting()\n        external\n    {\n        uint256 _x = isWaiting[msg.sender][0];\n        require(_x != 100);\n        uint256 _y = isWaiting[msg.sender][1];\n\n        money[waiting[_x][_y].addr] = money[waiting[_x][_y].addr].add(waiting[_x][_y].bet);\n\n        for (uint256 i = 0; i < 5; i++)\n            monsters[waiting[_x][_y].deck[i]].busy = false;\n\n        waiting[_x][_y] = waiting[_x][waitingLength[_x] - 1];\n        waitingLength[_x]--;\n        isWaiting[msg.sender] = [100, 0];\n    }\n\n    function sellMonster(\n        uint32 _id,\n        uint256 _price\n    )\n        external\n    {\n        require((!monsters[_id].busy || inSale[_id] > 0) && owner[_id] == msg.sender);\n        inSale[_id] = _price;\n        monsters[_id].busy = (_price == 0) ? false : true;\n        emit ForSale(msg.sender, _id, _price);\n    }\n\n    function buyMonster(uint32 _id)\n        external\n        payable\n    {\n        require(inSale[_id] > 0 && msg.value >= inSale[_id]);\n        inSale[_id] = 0;\n        address owner_ = owner[_id];\n\n        uint256 _fees = msg.value.mul(params[9]) / 10000;\n        money[owner_] = money[owner_].add(msg.value).sub(_fees);\n        money[contractOwner] = money[contractOwner].add(_fees);\n\n        approved[_id] = msg.sender;\n        emit Approval(owner_, msg.sender, _id);\n\n        monsters[_id].busy = false;\n\n        transferFrom(owner_, msg.sender, _id);\n    }\n\n    function lvlUp (\n        uint32[] _ids,\n        uint8[] _atkMod,\n        uint8[] _defMod,\n        uint8[] _spdMod\n    )\n        external\n    {\n        require(\n            _ids.length == _atkMod.length &&\n            _atkMod.length == _defMod.length &&\n            _defMod.length == _spdMod.length\n        );\n\n        uint8 _skillsAvailable;\n\n        for (uint256 i = 0; i < _ids.length; i++) {\n            _skillsAvailable = 0;\n            require(owner[_ids[i]] == msg.sender);\n\n            while ( //TODO Wtf, can this be resolved without the need for a while loop?\n                ((uint256(monsters[_ids[i]].lvl)**3)/5) <= monsters[_ids[i]].exp &&\n                monsters[_ids[i]].lvl < 100\n            ) {\n                monsters[_ids[i]].lvl++;\n                _skillsAvailable += uint8(params[10]);\n            }\n\n\n            require(_atkMod[i].add(_defMod[i]).add(_spdMod[i]) <= _skillsAvailable);\n\n            uint256 _cap = monsters[_ids[i]].lvl/11*12+20;\n\n            require(\n                _cap >= monsters[_ids[i]].atk.add(_atkMod[i]) &&\n                _cap >= monsters[_ids[i]].def.add(_defMod[i]) &&\n                _cap >= monsters[_ids[i]].spd.add(_spdMod[i])\n            );\n\n            // No need to use safemath: overflows are checked for\n            // in the require above.\n            monsters[_ids[i]].atk += _atkMod[i];\n            monsters[_ids[i]].def += _defMod[i];\n            monsters[_ids[i]].spd += _spdMod[i];\n\n            emit Upgraded(\n                _ids[i],\n                _atkMod[i],\n                _defMod[i],\n                _spdMod[i]\n            );\n        }\n    }\n}\n",
  "sourcePath": "/home/emanuele/cryptomon/cryptomon-contracts/contracts/CryptoMon.sol",
  "compiler": {
    "name": "solc",
    "version": "0.4.24+commit.e67f0147.Emscripten.clang"
  },
  "schemaVersion": "2.0.0",
  "updatedAt": "2018-09-08T22:51:49.612Z"
}